DEPARTMENT Z-REPORT                     <0001>
12/06/98                                 15:11
0001GROCERY             0000000000000000000000
0002SAVVY               0000000000000000000000
0003STATIONERY          0000000000000000000000
0004HEALTH AND BEAUTY   0000002000000000000347
0005BABY ACCESSORIES    0000000000000000000000
0006GARMENTS            0000000000000000000000
0007CAR ACCESSORIES     0000000000000000000000
0008TOYS                0000000000000000000000
0009HOUSEWARE           0000000000000000000000
0010HARDWARE            0000000000000000000000
0011CHOCOLATE SECTION   0000000000000000000000
0012NOVELTY ITEMS       0000002000000000000382
0013SPORTS ITEMS        0000000000000000000000
0014ELECTRONICS         0000000000000000000000
0015TOILETRIES          0000000000000000000000
0017KITCHENWARE         0000000000000000000000
0020LUGGAGES &BAGS      0000000000000000000000
0021WATCHES             0000000000000000000000
0022SHOES               0000000000000000000000
0024BED & BATH          0000000000000000000000
0025SPECIAL (50%)       0000000000000000000000
0026SPECIAL (30%)       0000000000000000000000
0030GROCERY (ON SALE)   0000000000000000000000
0031WINES & LIQUORS     0000000000000000000000
0032CIGARETTES          0000000000000000000000
0033ARJAN ELECTRONICS   0000000000000000000000
0034CENTENNIAL ITEM     0000000000000000000000
0035SAVVY (ON SALE)     0000000000000000000000
0036SAVVY COSMETICS     0000000000000000000000
