DEPARTMENT Z-REPORT                     <0001>
07/18/98                                 17:39
0001RECORDS AND TAPES   0000000000000000000000
0002LADIES' ACCESSORIES 0000004000000000002000
0003MEN'S ACCESSORIES   0000000000000000000000
0004TOYS                0000003000000000207800
0005SCHOOL AND OFFICE   0000000000000000000000
0006CHILDREN AND INFANTS0000001000000000004500
0007MEN'S RTW           0000002000000000120000
0008LADIES' RTW         0000000000000000000000
0009GROCERIES           0000000000000000000000
0010KITCHEN WARE        0000000000000000000000
0011CHOCOLATE SECTION   0000000000000000000000
0012HARDWARE            0000001000000000005500
0013SCHOLL & OFFICE SUPS0000024000000000196800
0014ELECTRONICS         0000000000000000000000
0015HOME COLLECTIONS    0000015000000000185088
0016MEN'S ACCESSORIES   0000000000000000000000
0022AUTO ADD DEPARTMENT.0000000000000000000000
0032AUTO ADD DEPARTMENT.0000000000000000000000
DEPARTMENT Z-REPORT                     <0001>
07/22/98                                 17:41
0001RECORDS AND TAPES   0000000000000000000000
0002LADIES' ACCESSORIES 0000000000000000000000
0003MEN'S ACCESSORIES   0000000000000000000000
0004TOYS                0000000000000000000000
0005SCHOOL AND OFFICE   0000000000000000000000
0006CHILDREN AND INFANTS0000000000000000000000
0007MEN'S RTW           0000000000000000000000
0008LADIES' RTW         0000000000000000000000
0009GROCERIES           0000000000000000000000
0010KITCHEN WARE        0000000000000000000000
0011CHOCOLATE SECTION   0000000000000000000000
0012HARDWARE            0000000000000000000000
0013SCHOLL & OFFICE SUPS0000000000000000000000
0014ELECTRONICS         0000000000000000000000
0015HOME COLLECTIONS    0000000000000000000000
0016MEN'S ACCESSORIES   0000000000000000000000
0022AUTO ADD DEPARTMENT.0000000000000000000000
0032AUTO ADD DEPARTMENT.0000000000000000000000
DEPARTMENT Z-REPORT                     <0001>
07/22/98                                 00:36
0001RECORDS AND TAPES   0000004000000000035100
0002LADIES' ACCESSORIES 0000012000000000025600
0003MEN'S ACCESSORIES   0000000000000000000000
0004TOYS                0000015000000000323750
0005SCHOOL AND OFFICE   0000000000000000000000
0006CHILDREN AND INFANTS0000000000000000000000
0007MEN'S RTW           0000002000000000010000
0008LADIES' RTW         0000000000000000000000
0009GROCERIES           0000003000000000008500
0010KITCHEN WARE        0000000000000000000000
0011CHOCOLATE SECTION   0000002000000000075000
0012HARDWARE            0000008000000000018800
0013SCHOLL & OFFICE SUPS0000003000000000024600
0014ELECTRONICS         0000000000000000000000
0015HOME COLLECTIONS    0000007000000000121640
0016MEN'S ACCESSORIES   0000000000000000000000
0022AUTO ADD DEPARTMENT.0000000000000000000000
0032AUTO ADD DEPARTMENT.0000000000000000000000
DEPARTMENT Z-REPORT                     <0001>
07/24/98                                 18:57
0001RECORDS AND TAPES   0000004000000000079500
0002LADIES' ACCESSORIES 0000009000000000018478
0003MEN'S ACCESSORIES   0000003000000000023905
0004TOYS                0000023000000001177726
0005SCHOOL AND OFFICE SU0000002000000000013800
0006CHILDREN AND INFANTS0000002000000000013500
0007MEN'S RTW           0000002000000000009700
0008LADIES' RTW         0000004000000000005546
0009GROCERIES           0000018000000000241490
0010KITCHEN WARE        0000007000000000090630
0011CHOCOLATE SECTION   0000007000000000030445
0012HARDWARE            0000008000000000093200
0013SCHOLL & OFFICE SUPS0000012000000000073200
0014ELECTRONICS         0000000000000000000000
0015HOME COLLECTIONS    0000000000000000000000
0016MEN'S ACCESSORIES   0000000000000000000000
0022AUTO ADD DEPARTMENT.0000000000000000000000
0032AUTO ADD DEPARTMENT.0000000000000000000000
DEPARTMENT Z-REPORT                     <0001>
07/24/98                                 23:46
0001RECORDS AND TAPES   0000003000000000051500
0002LADIES' ACCESSORIES 0000007000000000021700
0003MEN'S ACCESSORIES   0000002000000000022500
0004TOYS                0000003000000000123850
0005SCHOOL AND OFFICE SU0000001000000000001150
0006CHILDREN AND INFANTS0000000000000000000000
0007MEN'S RTW           0000001000000000005000
0008LADIES' RTW         0000000000000000000000
0009GROCERIES           0000013000000000028790
0010KITCHEN WARE        0000000000000000000000
0011CHOCOLATE SECTION   0000001000000000037500
0012HARDWARE            0000005000000000011750
0013ELECTRONICS         0000002000000000010100
0014HOME COLLECTION     0000001000000000007000
0015MEN'S ACCESSORIES   0000003000000000059070
