DEPARTMENT Z-REPORT                     <0001>
10/14/98                                 20:35
0001GROCERY             0000001000000000000098
0002SAVVY               0000000000000000000000
0003STATIONERY          0000000000000000000000
0004HEALTH AND BEAUTY   0000004000000000001594
0005BABY ACCESSORIES    0000001000000000000039
0006GARMENTS            0000000000000000000000
0007CAR ACCESSORIES     0000000000000000000000
0008TOYS                0000000000000000000000
0009HOUSEWARE           0000000000000000000000
0010HARDWARE            0000000000000000000000
0011CHOCOLATE SECTION   0000000000000000000000
0012NOVELTY ITEMS       0000002000000000000382
0013SPORTS ITEMS        0000000000000000000000
0014ELECTRONICS         0000001000000000000195
0015TOILETRIES          0000001000000000000037
0017KITCHENWARE         0000000000000000000000
0020LUGGAGES &BAGS      0000000000000000000000
0021WATCHES             0000000000000000000000
0022SHOES               0000000000000000000000
0024BED & BATH          0000001000000000000033
0025SPECIAL (50%)       0000000000000000000000
0026SPECIAL (30%)       0000000000000000000000
0030GROCERY (ON SALE)   0000001000000000000019
0031WINES & LIQUORS     0000000000000000000000
0032CIGARETTES          0000000000000000000000
0033ARJAN ELECTRONICS   0000000000000000000000
0034CENTENNIAL ITEM     0000000000000000000000
0035SAVVY (ON SALE)     0000000000000000000000
0036SAVVY COSMETICS     0000000000000000000000
DEPARTMENT Z-REPORT                     <0001>
10/14/98                                 21:34
0001GROCERY             0000000000000000000000
0002SAVVY               0000000000000000000000
0003STATIONERY          0000000000000000000000
0004HEALTH AND BEAUTY   0000000000000000000000
0005BABY ACCESSORIES    0000000000000000000000
0006GARMENTS            0000000000000000000000
0007CAR ACCESSORIES     0000000000000000000000
0008TOYS                0000000000000000000000
0009HOUSEWARE           0000000000000000000000
0010HARDWARE            0000000000000000000000
0011CHOCOLATE SECTION   0000000000000000000000
0012NOVELTY ITEMS       0000000000000000000000
0013SPORTS ITEMS        0000000000000000000000
0014ELECTRONICS         0000000000000000000000
0015TOILETRIES          0000000000000000000000
0017KITCHENWARE         0000000000000000000000
0020LUGGAGES &BAGS      0000000000000000000000
0021WATCHES             0000000000000000000000
0022SHOES               0000000000000000000000
0024BED & BATH          0000000000000000000000
0025SPECIAL (50%)       0000000000000000000000
0026SPECIAL (30%)       0000000000000000000000
0030GROCERY (ON SALE)   0000000000000000000000
0031WINES & LIQUORS     0000000000000000000000
0032CIGARETTES          0000000000000000000000
0033ARJAN ELECTRONICS   0000000000000000000000
0034CENTENNIAL ITEM     0000000000000000000000
0035SAVVY (ON SALE)     0000000000000000000000
0036SAVVY COSMETICS     0000000000000000000000
DEPARTMENT Z-REPORT                     <0001>
10/15/98                                 21:39
0001GROCERY             0000001000000000000098
0002SAVVY               0000000000000000000000
0003STATIONERY          0000000000000000000000
0004HEALTH AND BEAUTY   0000005000000000005950
0005BABY ACCESSORIES    0000000000000000000000
0006GARMENTS            0000012000000000004284
0007CAR ACCESSORIES     0000000000000000000000
0008TOYS                0000000000000000000000
0009HOUSEWARE           0000000000000000000000
0010HARDWARE            0000000000000000000000
0011CHOCOLATE SECTION   0000000000000000000000
0012NOVELTY ITEMS       0000003000000000000512
0013SPORTS ITEMS        0000000000000000000000
0014ELECTRONICS         0000001000000000000195
0015TOILETRIES          0000003000000000000111
0017KITCHENWARE         0000000000000000000000
0020LUGGAGES &BAGS      0000000000000000000000
0021WATCHES             0000000000000000000000
0022SHOES               0000000000000000000000
0024BED & BATH          0000000000000000000000
0025SPECIAL (50%)       0000000000000000000000
0026SPECIAL (30%)       0000000000000000000000
0030GROCERY (ON SALE)   0000005000000000000095
0031WINES & LIQUORS     0000000000000000000000
0032CIGARETTES          0000000000000000000000
0033ARJAN ELECTRONICS   0000000000000000000000
0034CENTENNIAL ITEM     0000000000000000000000
0035SAVVY (ON SALE)     0000000000000000000000
0036SAVVY COSMETICS     0000000000000000000000
DEPARTMENT Z-REPORT                     <0001>
10/16/98                                 00:01
0001GROCERY             0000031000000000003038
0002SAVVY               0000000000000000000000
0003STATIONERY          0000000000000000000000
0004HEALTH AND BEAUTY   0000021000000000024990
0005BABY ACCESSORIES    0000000000000000000000
0006GARMENTS            0000006000000000002142
0007CAR ACCESSORIES     0000000000000000000000
0008TOYS                0000000000000000000000
0009HOUSEWARE           0000000000000000000000
0010HARDWARE            0000000000000000000000
0011CHOCOLATE SECTION   0000000000000000000000
0012NOVELTY ITEMS       0000038000000000008600
0013SPORTS ITEMS        0000000000000000000000
0014ELECTRONICS         0000023000000000004485
0015TOILETRIES          0000014000000000000518
0017KITCHENWARE         0000000000000000000000
0020LUGGAGES &BAGS      0000000000000000000000
0021WATCHES             0000000000000000000000
0022SHOES               0000000000000000000000
0024BED & BATH          0000011000000000000363
0025SPECIAL (50%)       0000000000000000000000
0026SPECIAL (30%)       0000000000000000000000
0030GROCERY (ON SALE)   0000042000000000000798
0031WINES & LIQUORS     0000000000000000000000
0032CIGARETTES          0000000000000000000000
0033ARJAN ELECTRONICS   0000000000000000000000
0034CENTENNIAL ITEM     0000000000000000000000
0035SAVVY (ON SALE)     0000000000000000000000
0036SAVVY COSMETICS     0000000000000000000000
DEPARTMENT Z-REPORT                     <0001>
10/17/98                                 01:01
0001GROCERY             0000032000000000003136
0002SAVVY               0000000000000000000000
0003STATIONERY          0000000000000000000000
0004HEALTH AND BEAUTY   0000005000000000005950
0005BABY ACCESSORIES    0000000000000000000000
0006GARMENTS            0000003000000000001071
0007CAR ACCESSORIES     0000000000000000000000
0008TOYS                0000000000000000000000
0009HOUSEWARE           0000000000000000000000
0010HARDWARE            0000000000000000000000
0011CHOCOLATE SECTION   0000000000000000000000
0012NOVELTY ITEMS       0000019000000000002958
0013SPORTS ITEMS        0000000000000000000000
0014ELECTRONICS         0000006000000000002566
0015TOILETRIES          0000017000000000000629
0017KITCHENWARE         0000000000000000000000
0020LUGGAGES &BAGS      0000000000000000000000
0021WATCHES             0000000000000000000000
0022SHOES               0000000000000000000000
0024BED & BATH          0000011000000000000363
0025SPECIAL (50%)       0000000000000000000000
0026SPECIAL (30%)       0000000000000000000000
0030GROCERY (ON SALE)   0000041000000000000779
0031WINES & LIQUORS     0000000000000000000000
0032CIGARETTES          0000000000000000000000
0033ARJAN ELECTRONICS   0000000000000000000000
0034CENTENNIAL ITEM     0000000000000000000000
0035SAVVY (ON SALE)     0000000000000000000000
0036SAVVY COSMETICS     0000000000000000000000
DEPARTMENT Z-REPORT                     <0001>
10/17/98                                 11:03
0001GROCERY             0000001000000000000098
0002SAVVY               0000000000000000000000
0003STATIONERY          0000000000000000000000
0004HEALTH AND BEAUTY   0000005000000000001848
0005BABY ACCESSORIES    0000002000000000000114
0006GARMENTS            0000001000000000000357
0007CAR ACCESSORIES     0000000000000000000000
0008TOYS                0000001000000000000399
0009HOUSEWARE           0000000000000000000000
0010HARDWARE            0000000000000000000000
0011CHOCOLATE SECTION   0000000000000000000000
0012NOVELTY ITEMS       0000003000000000000548
0013SPORTS ITEMS        0000000000000000000000
0014ELECTRONICS         0000001000000000000195
0015TOILETRIES          0000001000000000000037
0017KITCHENWARE         0000001000000000000119
0020LUGGAGES &BAGS      0000000000000000000000
0021WATCHES             0000000000000000000000
0022SHOES               0000000000000000000000
0024BED & BATH          0000002000000000000071
0025SPECIAL (50%)       0000000000000000000000
0026SPECIAL (30%)       0000000000000000000000
0030GROCERY (ON SALE)   0000001000000000000019
0031WINES & LIQUORS     0000000000000000000000
0032CIGARETTES          0000000000000000000000
0033ARJAN ELECTRONICS   0000000000000000000000
0034CENTENNIAL ITEM     0000000000000000000000
0035SAVVY (ON SALE)     0000000000000000000000
0036SAVVY COSMETICS     0000000000000000000000
DEPARTMENT Z-REPORT                     <0001>
10/18/98                                 11:56
0001GROCERY             0000002000000000000196
0002SAVVY               0000000000000000000000
0003STATIONERY          0000000000000000000000
0004HEALTH AND BEAUTY   0000011000000000002777
0005BABY ACCESSORIES    0000001000000000000057
0006GARMENTS            0000000000000000000000
0007CAR ACCESSORIES     0000000000000000000000
0008TOYS                0000000000000000000000
0009HOUSEWARE           0000000000000000000000
0010HARDWARE            0000000000000000000000
0011CHOCOLATE SECTION   0000000000000000000000
0012NOVELTY ITEMS       0000002000000000000382
0013SPORTS ITEMS        0000000000000000000000
0014ELECTRONICS         0000003000000000000435
0015TOILETRIES          0000001000000000000037
0017KITCHENWARE         0000000000000000000000
0020LUGGAGES &BAGS      0000000000000000000000
0021WATCHES             0000000000000000000000
0022SHOES               0000000000000000000000
0024BED & BATH          0000003000000000000104
0025SPECIAL (50%)       0000000000000000000000
0026SPECIAL (30%)       0000000000000000000000
0030GROCERY (ON SALE)   0000001000000000000019
0031WINES & LIQUORS     0000000000000000000000
0032CIGARETTES          0000000000000000000000
0033ARJAN ELECTRONICS   0000000000000000000000
0034CENTENNIAL ITEM     0000000000000000000000
0035SAVVY (ON SALE)     0000000000000000000000
0036SAVVY COSMETICS     0000000000000000000000
DEPARTMENT Z-REPORT                     <0001>
10/19/98                                 13:38
0001GROCERY             0000026000000000002548
0002SAVVY               0000000000000000000000
0003STATIONERY          0000000000000000000000
0004HEALTH AND BEAUTY   0000018000000000004885
0005BABY ACCESSORIES    0000033000000000001593
0006GARMENTS            0000000000000000000000
0007CAR ACCESSORIES     0000000000000000000000
0008TOYS                0000000000000000000000
0009HOUSEWARE           0000000000000000000000
0010HARDWARE            0000000000000000000000
0011CHOCOLATE SECTION   0000000000000000000000
0012NOVELTY ITEMS       0000020000000000004100
0013SPORTS ITEMS        0000000000000000000000
0014ELECTRONICS         0000026000000000011998
0015TOILETRIES          0000001000000000000037
0017KITCHENWARE         0000000000000000000000
0020LUGGAGES &BAGS      0000000000000000000000
0021WATCHES             0000000000000000000000
0022SHOES               0000000000000000000000
0024BED & BATH          0000006000000000000213
0025SPECIAL (50%)       0000000000000000000000
0026SPECIAL (30%)       0000000000000000000000
0030GROCERY (ON SALE)   0000004000000000000076
0031WINES & LIQUORS     0000000000000000000000
0032CIGARETTES          0000000000000000000000
0033ARJAN ELECTRONICS   0000000000000000000000
0034CENTENNIAL ITEM     0000000000000000000000
0035SAVVY (ON SALE)     0000000000000000000000
0036SAVVY COSMETICS     0000000000000000000000
DEPARTMENT Z-REPORT                     <0001>
10/20/98                                 14:38
0001GROCERY             0000055000000000005390
0002SAVVY               0000000000000000000000
0003STATIONERY          0000000000000000000000
0004HEALTH AND BEAUTY   0000009000000000003607
0005BABY ACCESSORIES    0000015000000000000657
0006GARMENTS            0000001000000000000357
0007CAR ACCESSORIES     0000000000000000000000
0008TOYS                0000000000000000000000
0009HOUSEWARE           0000000000000000000000
0010HARDWARE            0000000000000000000000
0011CHOCOLATE SECTION   0000000000000000000000
0012NOVELTY ITEMS       0000017000000000002490
0013SPORTS ITEMS        0000000000000000000000
0014ELECTRONICS         0000012000000000001740
0015TOILETRIES          0000014000000000000518
0017KITCHENWARE         0000000000000000000000
0020LUGGAGES &BAGS      0000000000000000000000
0021WATCHES             0000000000000000000000
0022SHOES               0000000000000000000000
0024BED & BATH          0000005000000000000180
0025SPECIAL (50%)       0000000000000000000000
0026SPECIAL (30%)       0000000000000000000000
0030GROCERY (ON SALE)   0000006000000000000114
0031WINES & LIQUORS     0000000000000000000000
0032CIGARETTES          0000000000000000000000
0033ARJAN ELECTRONICS   0000000000000000000000
0034CENTENNIAL ITEM     0000000000000000000000
0035SAVVY (ON SALE)     0000000000000000000000
0036SAVVY COSMETICS     0000000000000000000000
DEPARTMENT Z-REPORT                     <0001>
10/21/98                                 14:56
0001GROCERY             0000000000000000000000
0002SAVVY               0000000000000000000000
0003STATIONERY          0000000000000000000000
0004HEALTH AND BEAUTY   0000001000000000000133
0005BABY ACCESSORIES    0000002000000000000096
0006GARMENTS            0000000000000000000000
0007CAR ACCESSORIES     0000000000000000000000
0008TOYS                0000000000000000000000
0009HOUSEWARE           0000000000000000000000
0010HARDWARE            0000000000000000000000
0011CHOCOLATE SECTION   0000000000000000000000
0012NOVELTY ITEMS       0000000000000000000000
0013SPORTS ITEMS        0000000000000000000000
0014ELECTRONICS         0000001000000000000195
0015TOILETRIES          0000000000000000000000
0017KITCHENWARE         0000000000000000000000
0020LUGGAGES &BAGS      0000000000000000000000
0021WATCHES             0000000000000000000000
0022SHOES               0000000000000000000000
0024BED & BATH          0000000000000000000000
0025SPECIAL (50%)       0000000000000000000000
0026SPECIAL (30%)       0000000000000000000000
0030GROCERY (ON SALE)   0000001000000000000019
0031WINES & LIQUORS     0000000000000000000000
0032CIGARETTES          0000000000000000000000
0033ARJAN ELECTRONICS   0000000000000000000000
0034CENTENNIAL ITEM     0000000000000000000000
0035SAVVY (ON SALE)     0000000000000000000000
0036SAVVY COSMETICS     0000000000000000000000
DEPARTMENT Z-REPORT                     <0001>
10/22/98                                 15:22
0001GROCERY             0000025000000000002450
0002SAVVY               0000000000000000000000
0003STATIONERY          0000000000000000000000
0004HEALTH AND BEAUTY   0000019000000000006039
0005BABY ACCESSORIES    0000014000000000000600
0006GARMENTS            0000002000000000000714
0007CAR ACCESSORIES     0000000000000000000000
0008TOYS                0000000000000000000000
0009HOUSEWARE           0000000000000000000000
0010HARDWARE            0000000000000000000000
0011CHOCOLATE SECTION   0000000000000000000000
0012NOVELTY ITEMS       0000013000000000002042
0013SPORTS ITEMS        0000000000000000000000
0014ELECTRONICS         0000010000000000002348
0015TOILETRIES          0000005000000000000185
0017KITCHENWARE         0000000000000000000000
0020LUGGAGES &BAGS      0000000000000000000000
0021WATCHES             0000000000000000000000
0022SHOES               0000000000000000000000
0024BED & BATH          0000006000000000000213
0025SPECIAL (50%)       0000000000000000000000
0026SPECIAL (30%)       0000000000000000000000
0030GROCERY (ON SALE)   0000001000000000000019
0031WINES & LIQUORS     0000000000000000000000
0032CIGARETTES          0000000000000000000000
0033ARJAN ELECTRONICS   0000000000000000000000
0034CENTENNIAL ITEM     0000000000000000000000
0035SAVVY (ON SALE)     0000000000000000000000
0036SAVVY COSMETICS     0000000000000000000000
DEPARTMENT Z-REPORT                     <0001>
10/23/98                                 15:59
0001GROCERY             0000001000000000000098
0002SAVVY               0000000000000000000000
0003STATIONERY          0000000000000000000000
0004HEALTH AND BEAUTY   0000004000000000001656
0005BABY ACCESSORIES    0000004000000000000192
0006GARMENTS            0000000000000000000000
0007CAR ACCESSORIES     0000000000000000000000
0008TOYS                0000000000000000000000
0009HOUSEWARE           0000000000000000000000
0010HARDWARE            0000000000000000000000
0011CHOCOLATE SECTION   0000000000000000000000
0012NOVELTY ITEMS       0000002000000000000382
0013SPORTS ITEMS        0000000000000000000000
0014ELECTRONICS         0000006000000000002566
0015TOILETRIES          0000002000000000000074
0017KITCHENWARE         0000000000000000000000
0020LUGGAGES &BAGS      0000000000000000000000
0021WATCHES             0000000000000000000000
0022SHOES               0000000000000000000000
0024BED & BATH          0000002000000000000076
0025SPECIAL (50%)       0000000000000000000000
0026SPECIAL (30%)       0000000000000000000000
0030GROCERY (ON SALE)   0000001000000000000019
0031WINES & LIQUORS     0000000000000000000000
0032CIGARETTES          0000000000000000000000
0033ARJAN ELECTRONICS   0000000000000000000000
0034CENTENNIAL ITEM     0000000000000000000000
0035SAVVY (ON SALE)     0000000000000000000000
0036SAVVY COSMETICS     0000000000000000000000
DEPARTMENT Z-REPORT                     <0001>
10/24/98                                 16:14
0001GROCERY             0000000000000000000000
0002SAVVY               0000000000000000000000
0003STATIONERY          0000000000000000000000
0004HEALTH AND BEAUTY   0000001000000000000178
0005BABY ACCESSORIES    0000002000000000000096
0006GARMENTS            0000000000000000000000
0007CAR ACCESSORIES     0000000000000000000000
0008TOYS                0000000000000000000000
0009HOUSEWARE           0000000000000000000000
0010HARDWARE            0000000000000000000000
0011CHOCOLATE SECTION   0000000000000000000000
0012NOVELTY ITEMS       0000000000000000000000
0013SPORTS ITEMS        0000000000000000000000
0014ELECTRONICS         0000001000000000000195
0015TOILETRIES          0000000000000000000000
0017KITCHENWARE         0000000000000000000000
0020LUGGAGES &BAGS      0000000000000000000000
0021WATCHES             0000000000000000000000
0022SHOES               0000000000000000000000
0024BED & BATH          0000000000000000000000
0025SPECIAL (50%)       0000000000000000000000
0026SPECIAL (30%)       0000000000000000000000
0030GROCERY (ON SALE)   0000000000000000000000
0031WINES & LIQUORS     0000000000000000000000
0032CIGARETTES          0000000000000000000000
0033ARJAN ELECTRONICS   0000000000000000000000
0034CENTENNIAL ITEM     0000000000000000000000
0035SAVVY (ON SALE)     0000000000000000000000
0036SAVVY COSMETICS     0000000000000000000000
DEPARTMENT Z-REPORT                     <0001>
11/18/98                                 06:26
0001GROCERY             0000000000000000000000
0002SAVVY               0000000000000000000000
0003STATIONERY          0000000000000000000000
0004HEALTH AND BEAUTY   0000005000000000000655
0005BABY ACCESSORIES    0000003000000000000153
0006GARMENTS            0000000000000000000000
0007CAR ACCESSORIES     0000000000000000000000
0008TOYS                0000002000000000000798
0009HOUSEWARE           0000000000000000000000
0010HARDWARE            0000000000000000000000
0011CHOCOLATE SECTION   0000000000000000000000
0012NOVELTY ITEMS       0000000000000000000000
0013SPORTS ITEMS        0000000000000000000000
0014ELECTRONICS         0000000000000000000000
0015TOILETRIES          0000000000000000000000
0017KITCHENWARE         0000001000000000000119
0020LUGGAGES &BAGS      0000005000000000001310
0021WATCHES             0000000000000000000000
0022SHOES               0000000000000000000000
0024BED & BATH          0000004000000000000078
0025SPECIAL (50%)       0000000000000000000000
0026SPECIAL (30%)       0000000000000000000000
0030GROCERY (ON SALE)   0000000000000000000000
0031WINES & LIQUORS     0000000000000000000000
0032CIGARETTES          0000000000000000000000
0033ARJAN ELECTRONICS   0000000000000000000000
0034CENTENNIAL ITEM     0000000000000000000000
0035SAVVY (ON SALE)     0000000000000000000000
0036SAVVY COSMETICS     0000000000000000000000
DEPARTMENT Z-REPORT                     <0001>
11/19/98                                 22:37
0001GROCERY             0000001000000000000098
0002SAVVY               0000000000000000000000
0003STATIONERY          0000000000000000000000
0004HEALTH AND BEAUTY   0000006000000000001416
0005BABY ACCESSORIES    0000000000000000000000
0006GARMENTS            0000000000000000000000
0007CAR ACCESSORIES     0000000000000000000000
0008TOYS                0000000000000000000000
0009HOUSEWARE           0000000000000000000000
0010HARDWARE            0000000000000000000000
0011CHOCOLATE SECTION   0000000000000000000000
0012NOVELTY ITEMS       0000000000000000000000
0013SPORTS ITEMS        0000000000000000000000
0014ELECTRONICS         0000000000000000000000
0015TOILETRIES          0000000000000000000000
0017KITCHENWARE         0000000000000000000000
0020LUGGAGES &BAGS      0000000000000000000000
0021WATCHES             0000000000000000000000
0022SHOES               0000000000000000000000
0024BED & BATH          0000005000000000000175
0025SPECIAL (50%)       0000000000000000000000
0026SPECIAL (30%)       0000000000000000000000
0030GROCERY (ON SALE)   0000000000000000000000
0031WINES & LIQUORS     0000000000000000000000
0032CIGARETTES          0000000000000000000000
0033ARJAN ELECTRONICS   0000000000000000000000
0034CENTENNIAL ITEM     0000000000000000000000
0035SAVVY (ON SALE)     0000000000000000000000
0036SAVVY COSMETICS     0000000000000000000000
DEPARTMENT Z-REPORT                     <0001>
11/22/98                                 10:45
0001GROCERY             0000000000000000000000
0002SAVVY               0000000000000000000000
0003STATIONERY          0000000000000000000000
0004HEALTH AND BEAUTY   0000000000000000000000
0005BABY ACCESSORIES    0000000000000000000000
0006GARMENTS            0000000000000000000000
0007CAR ACCESSORIES     0000000000000000000000
0008TOYS                0000000000000000000000
0009HOUSEWARE           0000000000000000000000
0010HARDWARE            0000000000000000000000
0011CHOCOLATE SECTION   0000000000000000000000
0012NOVELTY ITEMS       0000000000000000000000
0013SPORTS ITEMS        0000000000000000000000
0014ELECTRONICS         0000000000000000000000
0015TOILETRIES          0000000000000000000000
0017KITCHENWARE         0000000000000000000000
0020LUGGAGES &BAGS      0000000000000000000000
0021WATCHES             0000000000000000000000
0022SHOES               0000000000000000000000
0024BED & BATH          0000000000000000000000
0025SPECIAL (50%)       0000000000000000000000
0026SPECIAL (30%)       0000000000000000000000
0030GROCERY (ON SALE)   0000000000000000000000
0031WINES & LIQUORS     0000000000000000000000
0032CIGARETTES          0000000000000000000000
0033ARJAN ELECTRONICS   0000000000000000000000
0034CENTENNIAL ITEM     0000000000000000000000
0035SAVVY (ON SALE)     0000000000000000000000
0036SAVVY COSMETICS     0000000000000000000000
DEPARTMENT Z-REPORT                     <0001>
11/22/98                                 12:21
0001GROCERY             0000000000000000000000
0002SAVVY               0000000000000000000000
0003STATIONERY          0000000000000000000000
0004HEALTH AND BEAUTY   0000000000000000000000
0005BABY ACCESSORIES    0000000000000000000000
0006GARMENTS            0000000000000000000000
0007CAR ACCESSORIES     0000000000000000000000
0008TOYS                0000000000000000000000
0009HOUSEWARE           0000000000000000000000
0010HARDWARE            0000000000000000000000
0011CHOCOLATE SECTION   0000000000000000000000
0012NOVELTY ITEMS       0000000000000000000000
0013SPORTS ITEMS        0000000000000000000000
0014ELECTRONICS         0000000000000000000000
0015TOILETRIES          0000000000000000000000
0017KITCHENWARE         0000000000000000000000
0020LUGGAGES &BAGS      0000000000000000000000
0021WATCHES             0000000000000000000000
0022SHOES               0000000000000000000000
0024BED & BATH          0000000000000000000000
0025SPECIAL (50%)       0000000000000000000000
0026SPECIAL (30%)       0000000000000000000000
0030GROCERY (ON SALE)   0000000000000000000000
0031WINES & LIQUORS     0000000000000000000000
0032CIGARETTES          0000000000000000000000
0033ARJAN ELECTRONICS   0000000000000000000000
0034CENTENNIAL ITEM     0000000000000000000000
0035SAVVY (ON SALE)     0000000000000000000000
0036SAVVY COSMETICS     0000000000000000000000
DEPARTMENT Z-REPORT                     <0001>
11/23/98                                 12:45
0001GROCERY             0000000000000000000000
0002SAVVY               0000000000000000000000
0003STATIONERY          0000000000000000000000
0004HEALTH AND BEAUTY   0000000000000000000000
0005BABY ACCESSORIES    0000000000000000000000
0006GARMENTS            0000000000000000000000
0007CAR ACCESSORIES     0000000000000000000000
0008TOYS                0000000000000000000000
0009HOUSEWARE           0000000000000000000000
0010HARDWARE            0000000000000000000000
0011CHOCOLATE SECTION   0000000000000000000000
0012NOVELTY ITEMS       0000000000000000000000
0013SPORTS ITEMS        0000000000000000000000
0014ELECTRONICS         0000000000000000000000
0015TOILETRIES          0000000000000000000000
0017KITCHENWARE         0000000000000000000000
0020LUGGAGES &BAGS      0000000000000000000000
0021WATCHES             0000000000000000000000
0022SHOES               0000000000000000000000
0024BED & BATH          0000000000000000000000
0025SPECIAL (50%)       0000000000000000000000
0026SPECIAL (30%)       0000000000000000000000
0030GROCERY (ON SALE)   0000000000000000000000
0031WINES & LIQUORS     0000000000000000000000
0032CIGARETTES          0000000000000000000000
0033ARJAN ELECTRONICS   0000000000000000000000
0034CENTENNIAL ITEM     0000000000000000000000
0035SAVVY (ON SALE)     0000000000000000000000
0036SAVVY COSMETICS     0000000000000000000000
