DEPARTMENT Z-REPORT                     <0001>
08/25/98                                 10:27
0001GROCERY             0000001000000000000098
0002SAVVY               0000000000000000000000
0003STATIONERY          0000000000000000000000
0004HEALTH AND BEAUTY   0000015000000000006134
0005BABY ACCESSORIES    0000002000000000000096
0006GARMENTS            0000006000000000002142
0007CAR ACCESSORIES     0000000000000000000000
0008TOYS                0000002000000000000798
0009HOUSEWARE           0000000000000000000000
0010HARDWARE            0000000000000000000000
0011CHOCOLATE SECTION   0000000000000000000000
0012NOVELTY ITEMS       0000006000000000000974
0013SPORTS ITEMS        0000000000000000000000
0014ELECTRONICS         0000003000000000001283
0015TOILETRIES          0000002000000000000074
0017KITCHENWARE         0000003000000000000357
0020LUGGAGES &BAGS      0000002000000000000524
0021WATCHES             0000000000000000000000
0022SHOES               0000000000000000000000
0024BED & BATH          0000001000000000000015
0025SPECIAL (50%)       0000000000000000000000
0026SPECIAL (30%)       0000000000000000000000
0030GROCERY (ON SALE)   0000003000000000000057
0031WINES & LIQUORS     0000000000000000000000
0032CIGARETTES          0000000000000000000000
0033ARJAN ELECTRONICS   0000000000000000000000
0034CENTENNIAL ITEM     0000000000000000000000
0035SAVVY (ON SALE)     0000000000000000000000
0036SAVVY COSMETICS     0000000000000000000000
DEPARTMENT Z-REPORT                     <0001>
10/11/98                                 13:39
0001GROCERY             0000000000000000000000
0002SAVVY               0000000000000000000000
0003STATIONERY          0000000000000000000000
0004HEALTH AND BEAUTY   0000000000000000000000
0005BABY ACCESSORIES    0000000000000000000000
0006GARMENTS            0000000000000000000000
0007CAR ACCESSORIES     0000000000000000000000
0008TOYS                0000000000000000000000
0009HOUSEWARE           0000000000000000000000
0010HARDWARE            0000000000000000000000
0011CHOCOLATE SECTION   0000000000000000000000
0012NOVELTY ITEMS       0000000000000000000000
0013SPORTS ITEMS        0000000000000000000000
0014ELECTRONICS         0000000000000000000000
0015TOILETRIES          0000000000000000000000
0017KITCHENWARE         0000000000000000000000
0020LUGGAGES &BAGS      0000000000000000000000
0021WATCHES             0000000000000000000000
0022SHOES               0000000000000000000000
0024BED & BATH          0000000000000000000000
0025SPECIAL (50%)       0000000000000000000000
0026SPECIAL (30%)       0000000000000000000000
0030GROCERY (ON SALE)   0000000000000000000000
0031WINES & LIQUORS     0000000000000000000000
0032CIGARETTES          0000000000000000000000
0033ARJAN ELECTRONICS   0000000000000000000000
0034CENTENNIAL ITEM     0000000000000000000000
0035SAVVY (ON SALE)     0000000000000000000000
0036SAVVY COSMETICS     0000000000000000000000
DEPARTMENT Z-REPORT                     <0001>
10/11/98                                 13:44
0001GROCERY             0000000000000000000000
0002SAVVY               0000000000000000000000
0003STATIONERY          0000000000000000000000
0004HEALTH AND BEAUTY   0000000000000000000000
0005BABY ACCESSORIES    0000000000000000000000
0006GARMENTS            0000000000000000000000
0007CAR ACCESSORIES     0000000000000000000000
0008TOYS                0000000000000000000000
0009HOUSEWARE           0000000000000000000000
0010HARDWARE            0000000000000000000000
0011CHOCOLATE SECTION   0000000000000000000000
0012NOVELTY ITEMS       0000000000000000000000
0013SPORTS ITEMS        0000000000000000000000
0014ELECTRONICS         0000000000000000000000
0015TOILETRIES          0000000000000000000000
0017KITCHENWARE         0000000000000000000000
0020LUGGAGES &BAGS      0000000000000000000000
0021WATCHES             0000000000000000000000
0022SHOES               0000000000000000000000
0024BED & BATH          0000000000000000000000
0025SPECIAL (50%)       0000000000000000000000
0026SPECIAL (30%)       0000000000000000000000
0030GROCERY (ON SALE)   0000000000000000000000
0031WINES & LIQUORS     0000000000000000000000
0032CIGARETTES          0000000000000000000000
0033ARJAN ELECTRONICS   0000000000000000000000
0034CENTENNIAL ITEM     0000000000000000000000
0035SAVVY (ON SALE)     0000000000000000000000
0036SAVVY COSMETICS     0000000000000000000000
DEPARTMENT Z-REPORT                     <0001>
10/11/98                                 14:48
0001GROCERY             0000000000000000000000
0002SAVVY               0000000000000000000000
0003STATIONERY          0000000000000000000000
0004HEALTH AND BEAUTY   0000000000000000000000
0005BABY ACCESSORIES    0000000000000000000000
0006GARMENTS            0000000000000000000000
0007CAR ACCESSORIES     0000000000000000000000
0008TOYS                0000000000000000000000
0009HOUSEWARE           0000000000000000000000
0010HARDWARE            0000000000000000000000
0011CHOCOLATE SECTION   0000000000000000000000
0012NOVELTY ITEMS       0000000000000000000000
0013SPORTS ITEMS        0000000000000000000000
0014ELECTRONICS         0000001000000000000893
0015TOILETRIES          0000000000000000000000
0017KITCHENWARE         0000000000000000000000
0020LUGGAGES &BAGS      0000000000000000000000
0021WATCHES             0000000000000000000000
0022SHOES               0000000000000000000000
0024BED & BATH          0000000000000000000000
0025SPECIAL (50%)       0000000000000000000000
0026SPECIAL (30%)       0000000000000000000000
0030GROCERY (ON SALE)   0000000000000000000000
0031WINES & LIQUORS     0000000000000000000000
0032CIGARETTES          0000000000000000000000
0033ARJAN ELECTRONICS   0000000000000000000000
0034CENTENNIAL ITEM     0000000000000000000000
0035SAVVY (ON SALE)     0000000000000000000000
0036SAVVY COSMETICS     0000000000000000000000
DEPARTMENT Z-REPORT                     <0001>
10/11/98                                 14:53
0001GROCERY             0000000000000000000000
0002SAVVY               0000000000000000000000
0003STATIONERY          0000000000000000000000
0004HEALTH AND BEAUTY   0000000000000000000000
0005BABY ACCESSORIES    0000000000000000000000
0006GARMENTS            0000000000000000000000
0007CAR ACCESSORIES     0000000000000000000000
0008TOYS                0000000000000000000000
0009HOUSEWARE           0000000000000000000000
0010HARDWARE            0000000000000000000000
0011CHOCOLATE SECTION   0000000000000000000000
0012NOVELTY ITEMS       0000000000000000000000
0013SPORTS ITEMS        0000000000000000000000
0014ELECTRONICS         0000000000000000000000
0015TOILETRIES          0000000000000000000000
0017KITCHENWARE         0000000000000000000000
0020LUGGAGES &BAGS      0000000000000000000000
0021WATCHES             0000000000000000000000
0022SHOES               0000000000000000000000
0024BED & BATH          0000000000000000000000
0025SPECIAL (50%)       0000000000000000000000
0026SPECIAL (30%)       0000000000000000000000
0030GROCERY (ON SALE)   0000000000000000000000
0031WINES & LIQUORS     0000000000000000000000
0032CIGARETTES          0000000000000000000000
0033ARJAN ELECTRONICS   0000000000000000000000
0034CENTENNIAL ITEM     0000000000000000000000
0035SAVVY (ON SALE)     0000000000000000000000
0036SAVVY COSMETICS     0000000000000000000000
DEPARTMENT Z-REPORT                     <0001>
10/11/98                                 22:32
0001GROCERY             0000000000000000000000
0002SAVVY               0000000000000000000000
0003STATIONERY          0000000000000000000000
0004HEALTH AND BEAUTY   0000000000000000000000
0005BABY ACCESSORIES    0000000000000000000000
0006GARMENTS            0000000000000000000000
0007CAR ACCESSORIES     0000000000000000000000
0008TOYS                0000000000000000000000
0009HOUSEWARE           0000000000000000000000
0010HARDWARE            0000000000000000000000
0011CHOCOLATE SECTION   0000000000000000000000
0012NOVELTY ITEMS       0000000000000000000000
0013SPORTS ITEMS        0000000000000000000000
0014ELECTRONICS         0000000000000000000000
0015TOILETRIES          0000000000000000000000
0017KITCHENWARE         0000000000000000000000
0020LUGGAGES &BAGS      0000000000000000000000
0021WATCHES             0000000000000000000000
0022SHOES               0000000000000000000000
0024BED & BATH          0000000000000000000000
0025SPECIAL (50%)       0000000000000000000000
0026SPECIAL (30%)       0000000000000000000000
0030GROCERY (ON SALE)   0000000000000000000000
0031WINES & LIQUORS     0000000000000000000000
0032CIGARETTES          0000000000000000000000
0033ARJAN ELECTRONICS   0000000000000000000000
0034CENTENNIAL ITEM     0000000000000000000000
0035SAVVY (ON SALE)     0000000000000000000000
0036SAVVY COSMETICS     0000000000000000000000
DEPARTMENT Z-REPORT                     <0001>
10/11/98                                 23:01
0001GROCERY             0000000000000000000000
0002SAVVY               0000000000000000000000
0003STATIONERY          0000000000000000000000
0004HEALTH AND BEAUTY   0000000000000000000000
0005BABY ACCESSORIES    0000000000000000000000
0006GARMENTS            0000000000000000000000
0007CAR ACCESSORIES     0000000000000000000000
0008TOYS                0000000000000000000000
0009HOUSEWARE           0000000000000000000000
0010HARDWARE            0000000000000000000000
0011CHOCOLATE SECTION   0000000000000000000000
0012NOVELTY ITEMS       0000000000000000000000
0013SPORTS ITEMS        0000000000000000000000
0014ELECTRONICS         0000000000000000000000
0015TOILETRIES          0000000000000000000000
0017KITCHENWARE         0000000000000000000000
0020LUGGAGES &BAGS      0000000000000000000000
0021WATCHES             0000000000000000000000
0022SHOES               0000000000000000000000
0024BED & BATH          0000000000000000000000
0025SPECIAL (50%)       0000000000000000000000
0026SPECIAL (30%)       0000000000000000000000
0030GROCERY (ON SALE)   0000000000000000000000
0031WINES & LIQUORS     0000000000000000000000
0032CIGARETTES          0000000000000000000000
0033ARJAN ELECTRONICS   0000000000000000000000
0034CENTENNIAL ITEM     0000000000000000000000
0035SAVVY (ON SALE)     0000000000000000000000
0036SAVVY COSMETICS     0000000000000000000000
DEPARTMENT Z-REPORT                     <0001>
10/11/98                                 23:12
0001GROCERY             0000000000000000000000
0002SAVVY               0000000000000000000000
0003STATIONERY          0000000000000000000000
0004HEALTH AND BEAUTY   0000000000000000000000
0005BABY ACCESSORIES    0000000000000000000000
0006GARMENTS            0000000000000000000000
0007CAR ACCESSORIES     0000000000000000000000
0008TOYS                0000000000000000000000
0009HOUSEWARE           0000000000000000000000
0010HARDWARE            0000000000000000000000
0011CHOCOLATE SECTION   0000000000000000000000
0012NOVELTY ITEMS       0000000000000000000000
0013SPORTS ITEMS        0000000000000000000000
0014ELECTRONICS         0000000000000000000000
0015TOILETRIES          0000000000000000000000
0017KITCHENWARE         0000000000000000000000
0020LUGGAGES &BAGS      0000000000000000000000
0021WATCHES             0000000000000000000000
0022SHOES               0000000000000000000000
0024BED & BATH          0000000000000000000000
0025SPECIAL (50%)       0000000000000000000000
0026SPECIAL (30%)       0000000000000000000000
0030GROCERY (ON SALE)   0000000000000000000000
0031WINES & LIQUORS     0000000000000000000000
0032CIGARETTES          0000000000000000000000
0033ARJAN ELECTRONICS   0000000000000000000000
0034CENTENNIAL ITEM     0000000000000000000000
0035SAVVY (ON SALE)     0000000000000000000000
0036SAVVY COSMETICS     0000000000000000000000
DEPARTMENT Z-REPORT                     <0001>
10/12/98                                 23:28
0001GROCERY             0000000000000000000000
0002SAVVY               0000000000000000000000
0003STATIONERY          0000000000000000000000
0004HEALTH AND BEAUTY   0000000000000000000000
0005BABY ACCESSORIES    0000000000000000000000
0006GARMENTS            0000000000000000000000
0007CAR ACCESSORIES     0000000000000000000000
0008TOYS                0000000000000000000000
0009HOUSEWARE           0000000000000000000000
0010HARDWARE            0000000000000000000000
0011CHOCOLATE SECTION   0000000000000000000000
0012NOVELTY ITEMS       0000000000000000000000
0013SPORTS ITEMS        0000000000000000000000
0014ELECTRONICS         0000000000000000000000
0015TOILETRIES          0000000000000000000000
0017KITCHENWARE         0000000000000000000000
0020LUGGAGES &BAGS      0000000000000000000000
0021WATCHES             0000000000000000000000
0022SHOES               0000000000000000000000
0024BED & BATH          0000000000000000000000
0025SPECIAL (50%)       0000000000000000000000
0026SPECIAL (30%)       0000000000000000000000
0030GROCERY (ON SALE)   0000000000000000000000
0031WINES & LIQUORS     0000000000000000000000
0032CIGARETTES          0000000000000000000000
0033ARJAN ELECTRONICS   0000000000000000000000
0034CENTENNIAL ITEM     0000000000000000000000
0035SAVVY (ON SALE)     0000000000000000000000
0036SAVVY COSMETICS     0000000000000000000000
DEPARTMENT Z-REPORT                     <0001>
10/13/98                                 22:33
0001GROCERY             0000001000000000000098
0002SAVVY               0000000000000000000000
0003STATIONERY          0000000000000000000000
0004HEALTH AND BEAUTY   0000001000000000000214
0005BABY ACCESSORIES    0000002000000000000096
0006GARMENTS            0000000000000000000000
0007CAR ACCESSORIES     0000000000000000000000
0008TOYS                0000000000000000000000
0009HOUSEWARE           0000000000000000000000
0010HARDWARE            0000000000000000000000
0011CHOCOLATE SECTION   0000000000000000000000
0012NOVELTY ITEMS       0000001000000000000252
0013SPORTS ITEMS        0000000000000000000000
0014ELECTRONICS         0000000000000000000000
0015TOILETRIES          0000000000000000000000
0017KITCHENWARE         0000000000000000000000
0020LUGGAGES &BAGS      0000000000000000000000
0021WATCHES             0000000000000000000000
0022SHOES               0000000000000000000000
0024BED & BATH          0000000000000000000000
0025SPECIAL (50%)       0000000000000000000000
0026SPECIAL (30%)       0000000000000000000000
0030GROCERY (ON SALE)   0000000000000000000000
0031WINES & LIQUORS     0000000000000000000000
0032CIGARETTES          0000000000000000000000
0033ARJAN ELECTRONICS   0000000000000000000000
0034CENTENNIAL ITEM     0000000000000000000000
0035SAVVY (ON SALE)     0000000000000000000000
0036SAVVY COSMETICS     0000000000000000000000
